:020000040800F2
:1000000000040020C71100087110000873100008D8
:10001000771000087B1000087F1000080000000027
:100020000000000000000000000000008310000835
:1000300085100008000000008710000889100008E3
:10004000E7110008E7110008E7110008E7110008B0
:10005000E7110008E7110008E7110008E7110008A0
:10006000E7110008E7110008E7110008E711000890
:10007000E7110008E7110008E7110008E711000880
:10008000E7110008E7110008E7110008E711000870
:10009000E7110008E7110008E7110008E711000860
:1000A000E7110008E7110008E7110008E711000850
:1000B000E7110008E7110008E7110008E711000840
:1000C000E7110008E7110008E7110008E711000830
:1000D000E7110008E7110008E7110008E711000820
:1000E000E7110008E7110008E7110008E711000810
:1000F000E7110008E7110008E7110008E711000800
:10010000E7110008E7110008E7110008E7110008EF
:10011000E7110008E7110008E7110008E7110008DF
:10012000E7110008E7110008E7110008E7110008CF
:1001300000F002F800F03AF80AA090E8000C8244BF
:100140008344AAF10107DA4501D100F02FF8AFF29C
:10015000090EBAE80F0013F0010F18BFFB1A43F0A5
:1001600001031847901C0000B01C0000103A24BF87
:1001700078C878C1FAD8520724BF30C830C144BF0C
:1001800004680C607047000000230024002500264E
:10019000103A28BF78C1FBD8520728BF30C148BFEA
:1001A0000B6070471FB51FBD10B510BD01F064FD99
:1001B0001146FFF7F7FF00F008F801F082FD03B4E5
:1001C000FFF7F2FF03BC01F087FD10B500F0D0FF90
:1001D00000F060FA00F07EFC00F094F8002010BD02
:1001E00010B5044605222146C04801F0F7FC08B9C5
:1001F000012010BD0020FCE770B504460025204614
:10020000FFF7EEFF08B9FF2070BD07E020782F2828
:1002100001D1641C0CE0681CC5B2641C207838B1A4
:100220000A2D05DA20782C2802DD20787B28EDDBEA
:1002300000BF20783A2806DA20782F2803DD2078BE
:100240003038C0B2E0E7FE20DEE770B506460C4667
:10025000A7A20021304600F08CFE0546B44A29468C
:10026000304600F086FE0546B2A22946304600F030
:1002700080FE054634B1B6A22946304600F079FE2C
:10028000054605E0BBA22946304600F072FE054651
:10029000B9A22946304600F06CFE0546BB4A294605
:1002A000304600F073FE0546904A2946304600F07D
:1002B0006DFE0546B6A22946304600F05AFE0546B8
:1002C000B24A2946304600F061FE0546874A294673
:1002D000304600F05BFE054634B1B7A229463046F1
:1002E00000F047FE054605E0B8A22946304600F07A
:1002F00040FE0546BA4A2946304600F03AFE054619
:10030000284670BD0026B2460027B64800F0ABFA7A
:1003100040F27641142000F085FAB3480278B349E0
:10032000B04800F069FCDFE0B14940F2DC5000F079
:100330006DFB8046B8F1000F00D1D5E04146AC48D6
:1003400000F071FC18B1AA4800F03EFDCCE0414637
:10035000A74800F088FC00B9C6E0A548C07D012888
:1003600009D1A34890F82200082804D14146A048AA
:1003700000F058FDB8E09E48C07D06287DD19C481D
:1003800090F824000028F9D1994890F82500964962
:10039000096888427ED1964890F82F0000F002004C
:1003A00018B1934800F09AFD9EE0914890F82F0014
:1003B00000F0100000286DD08D4800F0BEFD00F068
:1003C000B3FD04464CB98A4890F82F0000F00100B4
:1003D00010B1874800F0E8FD86E085480119042245
:1003E00084A001F0FBFB30B184A20021804800F022
:1003F000C0FD804646E07E4A201D111802228EA0D4
:1004000001F0ECFBC0B98DA20021794800F0B1FDEC
:10041000804696A24146764800F0ABFD80465B4A96
:100420004146734800F0B2FD804693A241467048B1
:1004300000F09FFD804625E06D4A611D5018FFF7D2
:10044000DBFE0546681C30B98F4A0021684800F081
:1004500090FD804616E0012D04D129028B4800F062
:10046000ECFFAA4635B94FF48071884800F0E3FFED
:100470004FF0000A51465E4800E00BE0FFF7E5FE52
:10048000804600BF5A4800F08FFD4146584800F0B2
:10049000C9FD29E05648C07D112824D1544890F860
:1004A000240004281FD1524890F82500B0281AD102
:1004B0004F4890F826703F0290F827003844A0F18A
:1004C0000807002606E006F12A004949085C09F8F9
:1004D0000600761CBE42F6D36D483A46494603688C
:1004E000434800F0BEFC00BF1EE7000028000020CB
:1004F000485454502F312E3020323030204F4B0D85
:100500000A436F6E74656E742D547970653A207469
:100510006578742F68746D6C0D0A507261676D6137
:100520003A206E6F2D63616368650D0A0D0A000045
:10053000A01D00083C63656E7465723E3C703E20F1
:100540004C454431D7B4CCACD6B8CABE3A20000032
:100550003C666F6E7420636F6C6F723D2223303087
:1005600046463030223E20C1C13C2F666F6E743E3D
:1005700000000000C3F00000203C736D616C6C3E15
:100580003C6120687265663D220000000A00002080
:10059000223E5BCBA2D0C25D3C2F613E3C2F736DEF
:1005A000616C6C3E3C2F703E0A3C703E3C612068A2
:1005B0007265663D220000002F30223EB9D8B1D5C9
:1005C0004C4544313C2F613E3C703E002F31223E71
:1005D000B5E3C1C14C4544313C2F613E3C703E0007
:1005E000E81C000800000020200000200600002079
:1005F0006400002047455420000000004854545037
:100600002F312E3020323030204F4B0D0A436F6E89
:1006100074656E742D547970653A20746578742F02
:1006200068746D6C0D0A0D0A3C68313E3230302022
:100630004F4B3C2F68313E002F200000485454504F
:100640002F312E3020323030204F4B0D0A436F6E49
:1006500074656E742D547970653A20746578742FC2
:1006600068746D6C0D0A0D0A000000003C703E5568
:10067000736167653A20000070617373776F72640D
:100680003C2F703E00000000501D00080008014093
:100690002400002008B50121042001F0BBF801214D
:1006A000202001F0B7F84FF48070ADF80000102062
:1006B0008DF8030003208DF8020069460C4800F015
:1006C0000DFE0420ADF8000010208DF8030003207B
:1006D0008DF802006946074800F000FE4FF4807173
:1006E000034800F0A8FE0421024800F0A4FE08BD63
:1006F000000801400014014070B505460C46002674
:100700001020F149086004F01F0040EA0506304659
:1007100000F02AFAFF2000F027FA064604F08000D5
:1007200018B1FF2000F020FA06461020E649091F04
:100730000860304670BD2DE9F04104460D4616466E
:1007400000271020E049086005F01F0040EA040778
:10075000384600F009FA3746384600F005FA10200E
:10076000D949091F0860BDE8F08170B505460C46FF
:100770001020D54908603A2000F0F6F905E06D1E1A
:10078000002000F0F1F92070641C002DF7D100204A
:1007900020701020CC49091F086070BD70B5044658
:1007A0000D461020C84908607A2000F0DDF904E009
:1007B000641E287800F0D8F96D1C002CF8D11020A8
:1007C000C149091F086070BD10B5044604F06000FF
:1007D000BE49097888420ED003221F21A020FFF7CE
:1007E000AAFFC4F341121F218020FFF7A4FF04F0E9
:1007F0006000B649087010BD10B504462046FFF7EA
:10080000E3FF21460020FFF777FF10BD70B50446D7
:100810000D462046FFF7D8FF2A4621464020FFF725
:100820008AFF70BD70B505460C462946D420FFF7F7
:10083000EDFFE1B2D620FFF7E9FFC4F30721D7208F
:10084000FFF7E4FF00BFEA20FFF7D6FF00F001004A
:100850000028F8D170BD10B5044604F007017520DA
:10086000FFF7D4FF10BD10B5044610209649091FAC
:100870000860FF2200211046FFF75DFF0020944929
:10088000086000210820FFF7C1FF00210920FFF7C1
:10089000BDFF00210C20FFF7B9FF00210D20FFF75D
:1008A000B5FFFE210A20FFF7B1FF19210B20FFF74A
:1008B000ADFFFF210420FFF7A9FF19210520FFF755
:1008C000A5FFFF210620FFF7A1FF1F210720FFF74B
:1008D0009DFFB0213820FFF799FF3F212820FFF727
:1008E00095FF30212920FFF791FFF9213020FFF7F4
:1008F0008DFFF7213120FFF789FF0D21C020FFF781
:1009000085FF0021C120FFF781FF3322C221802013
:10091000FFF711FF1221C620FFF778FF0C21C72037
:10092000FFF774FF1521C420FFF770FFDC21CA20F8
:10093000FFF76CFF0521CB20FFF768FF2178E4204B
:10094000FFF764FF6178E520FFF760FFA178E22000
:10095000FFF75CFFE178E320FFF758FF2179E02003
:10096000FFF754FF6179E120FFF750FF4FF48071EA
:100970000020FFF757FF4FF480711020FFF752FF60
:100980001F20FFF721FFC0221B218020FFF7D3FE8D
:1009900004221F218020FFF7CEFE10BD10B572206B
:1009A000FFF72AFF10BD70B504460D46FF21022057
:1009B000FFF72CFF19210320FFF728FFFF20204419
:1009C000C1B20620FFF722FF41F6FF102044C0F31A
:1009D00007210720FFF71AFF002211467A20FFF7B0
:1009E000AAFE29462046FFF7D9FE08221F218020B3
:1009F000FFF7A1FE1C20FFF7FFFE00F0020020B170
:100A000008221F21A020FFF796FE70BD2DE9F041BE
:100A100005460F463920FFF7EFFE10B90020BDE86C
:100A2000F0812B4801780020FFF7F0FE284800886D
:100A3000C0F307210120FFF7E9FE00213A20FFF76C
:100A40005BFE2349086000213A20FFF755FE20494C
:100A5000096841EA00201E49086000213A20FFF79A
:100A60004BFE044600213A20FFF746FE44EA0024EC
:100A7000241F00213A20FFF73FFE064600213A20BE
:100A8000FFF73AFE46EA0026681EA04200D26C1E1E
:100A900006F0800008B9002403E039462046FFF73D
:100AA00064FE0B4801780C20FFF7B0FE0848008870
:100AB000C0F307210D20FFF7A9FE40221E21802050
:100AC000FFF739FE2046AAE7140801403000002055
:100AD0003400002000B587B0012141F2040000F08D
:100AE00099FEE020ADF8180001208DF81A001820BA
:100AF0008DF81B0006A9294800F0F0FB1020ADF886
:100B0000180001208DF81A0010208DF81B0006A98E
:100B1000224800F0E3FB1021204800F08CFC00206C
:100B2000ADF804004FF48270ADF806000020ADF877
:100B30000800ADF80A00ADF80C004FF40070ADF8F5
:100B40000E001020ADF810000020ADF812000720B4
:100B5000ADF8140001A9124800F0ECFE0121104884
:100B600000F085FF07B000BD10B5044600BF0221AC
:100B70000B4801F000F80028F9D02146084800F0A1
:100B8000A7FF00BF0121064800F0F5FF0028F9D0BB
:100B9000034800F09FFFC0B210BD000000080140F4
:100BA0000030014030B504460B460021012A03D134
:100BB0001131A3F108000144022A03D1891DA3F1D8
:100BC0000800014406E06078257840EA05200144E9
:100BD000A41C9B1E012BF6D813B1207801EB002139
:100BE00002E088B200EB1141080C0028F9D14FF661
:100BF000FF7581EA050030BD30B503460020FE4C8C
:100C0000227004E00C5CFD4D2C54441CE0B204281E
:100C1000F8DB002004E01C5CF94D2C54441CE0B2CD
:100C20000628F8DB30BD10B502460B460021292B03
:100C300001D2002010BD107B082802D1507B06286D
:100C400001D00020F6E70AE001F12600105CEB4C31
:100C5000645CA04201D00020ECE7481CC1B204292A
:100C6000F2DB0120E6E710B502460B4600212A2BF5
:100C700001D2002010BD107B082801D1507B08B1A3
:100C80000020F7E7907B452801D00020F2E70AE03A
:100C900001F11E00105CD94C645CA04201D0002020
:100CA000E8E7481CC1B20429F2DB0120E2E7014673
:100CB000002008E0821D8A5C0A54D14A135C821D20
:100CC0008B54421CD0B20628F4DB704730B5044682
:100CD000002020766076402020750020607540203E
:100CE000A0750022142104F10E00FFF75BFF0546FA
:100CF000280A2076657630BD30B5054600240BE025
:100D000004F11A00295C001D2954BC48015D04F15E
:100D10001A002954601CC4B2042CF1DB2846FFF7EA
:100D2000D5FF30BDF0B50C46002109E001F12206E7
:100D3000875DB61C87550027B61E87554E1CF1B23D
:100D40000229F3DBAC4E367880F82360042112E0F0
:100D500001F12506865D344401F12906855D84553F
:100D600013B1361F855503E0002701F1250687558D
:100D7000240A4E1EF1B20029EADC73B9002600F8FD
:100D8000266F46709F4E367886700026C6702638CD
:100D90009C4E3678B61C9B4F3E70002680F8326021
:100DA00080F8336062B102262E3006720426467245
:100DB000052686728026C672602600F82E6902E03B
:100DC000502680F82E60F0BD70B5054600242846F8
:100DD000FFF76DFF00202875022068750BE004F115
:100DE0001600295C0A3029548548015D04F116007B
:100DF0002954601CC4B2062CF1DB00240BE004F182
:100E00001C00295C0A3029547C48015D04F11C0057
:100E10002954601CC4B2042CF1DB29462A20FFF7B8
:100E2000C2FD70BD70B504460D462046FFF73FFF7A
:100E30002046FFF761FF002084F8220094F8240088
:100E4000F72804DD94F82500401C84F8250094F868
:100E50002400083084F8240021462846FFF7A3FD2B
:100E600070BD2DE9F0470446894615461F46002609
:100E70002046FFF71CFF05F11C06300A207466743B
:100E80002046FFF739FF380A04F8240F6770280A54
:100E9000A07005F10800E070002020716071243C12
:100EA00005E019F8061006F12A002154761CAE421E
:100EB000F7D305F11001012204F11A00FFF772FEC9
:100EC00080464FEA182084F8280084F8298005F12C
:100ED0002A002146FFF767FDBDE8F08770B504469C
:100EE0002046FFF7E4FE002020742C20607420468A
:100EF000FFF702FF122084F82F0000230122114681
:100F00002046FFF70FFF0222202104F11A00FFF70D
:100F100049FE0546280A84F8320084F833502146F9
:100F20003A20FFF740FD70BD3748006818B13748D8
:100F30000068223070470020FCE7027C417C62F3AD
:100F40001F21314A1160114609681439116090F867
:100F50002E10091189002D4A11602B490968126869
:100F6000891A294A11601146096809B900211160DE
:100F7000704710B5034603E001F136001C54491CCC
:100F800012F8014B002CF7D1084610BD10B50346EE
:100F900005E0147801F136001C54491C521C1078ED
:100FA0000028F6D1084610BD70B504462046FFF76C
:100FB0007EFE102084F82F001348006830B901230A
:100FC000002219462046FFF7ADFE06E0012300226D
:100FD0000D4801682046FFF7A5FE2825280A207441
:100FE00065742046FFF788FE02221C2104F11A00D6
:100FF000FFF7D8FD05460BE0380000203F00002039
:10100000390000204C00002048000020440000204F
:10101000280A84F8320084F8335021463620FFF73E
:10102000C2FC70BD70B504460D46192084F82F002F
:1010300005F12806300A207466742046FFF746FE44
:10104000002084F8320084F8330005F11C010222EC
:1010500004F11A00FFF7A6FD0646300A84F83200B4
:1010600084F8336005F136002146FFF79CFC70BD23
:10107000704700BFFEE700BFFEE700BFFEE700BF0E
:10108000FEE7704770477047704700000CB50020BE
:10109000019000904748006840F48030454908605E
:1010A00000BF4448006800F4003000900198401CE4
:1010B0000190009818B90198B0F5A06FF1D13D48A2
:1010C000006800F4003010B10120009001E0002021
:1010D00000900098012844D13748006840F0100083
:1010E000354908600846006820F00300086008469B
:1010F000006840F0020008602E4840682D494860B2
:101100000846406848600846406840F4806048608F
:101110000846406820F47C1048600846406840F467
:10112000E81048600846006840F08070086000BF22
:101130002048006800F000700028F9D01D48406881
:1011400020F003001B4948600846406840F0020058
:10115000486000BF1748406800F00C000828F9D12B
:1011600001E000BFFEE70CBD10B5FFF78FFF10BD1B
:1011700010B51048006840F001000E4908600846AC
:1011800040680E4908400B494860084600680C4911
:101190000840084908600846006820F4802008607C
:1011A0000846406820F4FE00486000208860FFF791
:1011B000DBFF10BD00100240002002400000FFF8DD
:1011C000FFFFF6FE70470B4880470B4981F3088804
:1011D0000A480047FEE7FEE7FEE7FEE7FEE7FEE718
:1011E000FEE7FEE7FEE7FEE705480649044A064B30
:1011F00070470000C5110008A80800203101000850
:10120000A8060020A8080020A806002010B5044663
:10121000C649601A8C422FD009DCC548204480B1F1
:10122000B0F5806F16D0B0F5006F4AD11BE0B0F575
:10123000806F2AD0B0F5006F30D0B0F5406F40D14C
:1012400035E00121042000F0FFFA0021042000F025
:10125000FBFA37E00121082000F0F6FA002108200F
:1012600000F0F2FA2EE00121102000F0EDFA00214A
:10127000102000F0E9FA25E00121202000F0E4FA36
:101280000021202000F0E0FA1CE00121402000F0C5
:10129000DBFA0021402000F0D7FA13E00121802082
:1012A00000F0D2FA0021802000F0CEFA0AE00121FD
:1012B000080200F0C9FA00214FF4807000F0C4FA6F
:1012C00000E000BF00BF10BD10B50121084600F0CE
:1012D000BBFA0021012000F0B7FA10BD2DE9F04162
:1012E000024600250026002000230024002791F854
:1012F00003C00CF00F0591F803C00CF0100CBCF10A
:10130000000F03D091F802C04CEA050591F800C027
:10131000BCF1000F31D0146800202BE04FF0010C1D
:101320000CFA00F3B1F800C00CEA03069E4220D18B
:1013300083004FF00F0C0CFA03F7BC4305FA03FCD3
:101340004CEA040491F803C0BCF1280F06D14FF019
:10135000010C0CFA00FCC2F814C00AE091F803C0BA
:10136000BCF1480F05D14FF0010C0CFA00FCC2F89B
:1013700010C0401C0828D1D31460B1F800C0BCF1E3
:10138000FF0F34DD546800202EE000F1080C4FF010
:10139000010808FA0CF3B1F800C00CEA03069E42FB
:1013A00021D183004FF00F0C0CFA03F7BC4305FA70
:1013B00003FC4CEA040491F803C0BCF1280F05D1EA
:1013C00000F1080C08FA0CF8C2F8148091F803C078
:1013D000BCF1480F07D100F1080C4FF0010808FAE2
:1013E0000CF8C2F81080401C0828CED35460BDE829
:1013F000F0814FF6FF710180022181700421C170DC
:1014000070470246002093680B400BB1012000E0BA
:10141000002070470146886880B27047024600206D
:10142000D3680B400BB1012000E00020704701465B
:10143000C86880B2704701617047416170470AB166
:10144000016100E041617047C16070474FF4803234
:101450000A438261816182618269826970470246C2
:101460000020344B18684FF68073184040EA021091
:101470000843304B186070472F49C8617047F0B57A
:101480000A4600230024002100252A4E7168C0F37B
:10149000034583B200F44016B6F5401F08D121F091
:1014A0007061244E766826F07066224F7E6012E0EE
:1014B00000F48016B6F5801F06D1032606FA05F45F
:1014C000A14341F0706106E0460D360103FA06F6CD
:1014D000B14341F0706122B1460D360103FA06F6C0
:1014E0003143144E7160F0BD30B500228B071C0FE4
:1014F0000F2303FA04F20F4B08338C1053F82430F7
:1015000093430C4C08348D1044F8253023468C103E
:1015100053F824308C07240F00FA04F42343054CBD
:1015200008348D1044F8253030BD0000001401400F
:1015300000F8FEBF0000014000002042DE480068C5
:1015400040F00100DC49086008464068DB4908407B
:10155000D949486008460068D9490840D64908601A
:101560000846006820F4802008600846406820F49F
:10157000FE004860002088607047CF49096821F468
:101580008031CD4A11601146096821F48021116033
:10159000B0F5803F03D0B0F5802F0ED106E0C649EC
:1015A000096841F48031C44A116007E0C249096802
:1015B00041F4A021C04A116000E000BF00BF7047A5
:1015C00010B501460022002300204A11012A02D151
:1015D000B94C236806E0022A02D1B74C236A01E025
:1015E000B54C636A01F01F02012494401C400CB109
:1015F000012000E0002010BD38B50020009000243C
:10160000002500BF3120FFF7DBFF05460098401C96
:1016100000901DB90098B0F5A06FF3D13120FFF70D
:10162000CFFF08B1012400E00024204638BD014668
:101630000020A14A106820F0F80040EAC1001060C4
:101640007047A04908607047024600209A4B5868CE
:1016500020F47C1042EA01031843974B586070470E
:1016600098490866704701460020934A506820F068
:1016700003000843506070478F48406800F00C003A
:101680007047014600208C4A506820F0F000084363
:101690005060704701460020874A506820F4E0609F
:1016A00008435060704701460020834A506820F488
:1016B000605040EAC1005060704729B17E4A527ABA
:1016C00002437D4B5A7204E07B4A527A82437A4B42
:1016D0005A7270477B49D831086070470146002034
:1016E000754A506820F4404008435060704700211C
:1016F000714A20321170704A82F82010012802D0FD
:1017000004280AD104E001216B4A2032117005E05F
:101710000521694A2032117000E000BF00BF704708
:101720006949086070476449096A0143624A116265
:101730007047654944390860704730B50021002280
:10174000002400235C4D6D6805F00C0121B10429D3
:1017500005D0082923D105E05C4D056022E05B4DF2
:1017600005601FE0544D6D6805F47012022505EB0D
:101770009242514D6D6805F480341CB9544D554367
:1017800005600BE04C4D6D6805F400351DB1504D02
:101790005543056002E04D4D5543056002E04B4D59
:1017A000056000BF00BF444D6D6805F0F0010909F8
:1017B000484D6B5C0568DD4045603F4D6D6805F444
:1017C000E061090A434D6B5C4568DD4085603A4D38
:1017D0006D6805F46051C90A3E4D6B5C4568DD409B
:1017E000C560354D6D6805F44041890B3A4D6B5C21
:1017F000C568B5FBF3F5056130BD29B12E4A5269C4
:1018000002432D4B5A6104E02B4A526982432A4B12
:101810005A61704729B1284A92690243264B9A615E
:1018200004E0254A92698243234B9A61704729B1AB
:10183000214AD2690243204BDA6104E01E4AD26990
:1018400082431D4BDA61704729B11B4AD2680243BB
:10185000194BDA6004E0184AD2688243164BDA600A
:10186000704729B1144A12690243134B1A6104E00C
:10187000114A12698243104B1A617047124940396C
:10188000086070470F49C86470470B49C8717047BA
:101890000948406A40F08070074948627047014635
:1018A0000020054A92680A400AB1012000E00020A9
:1018B0007047014988727047001002400000FFF82D
:1018C000FFFFF6FE000042428004424200127A000E
:1018D00000093D004D0000205D00002010B50446C9
:1018E000BD48204478B1B0F5806F16D0B0F5784F80
:1018F0001DD101210803FFF7A7FF00214FF48050FD
:10190000FFF7A2FF14E001218803FFF7AAFF0021DF
:101910004FF48040FFF7A5FF0AE00121C803FFF75D
:10192000A0FF00214FF40040FFF79BFF00E000BF45
:1019300000BF10BD10B50022028802F441520B888E
:101940004C8823438C882343CC8823430C8923432E
:101950004C8923438C892343CC8923431A43028037
:10196000838B4FF2FF74234083830B8A038210BD65
:101970002DE9F04786B005460C464FF000090227D6
:101980004FF000084FF0010A0026A88B4FF24001EB
:101990000840A88302202884B5F81C9020890228DA
:1019A00001D100BF31E0A08810B94FF0010A01E079
:1019B0004FF0020A01A8FFF7C0FEE088B0F5007FF3
:1019C0000AD1019800EB8000400021890902B0FB98
:1019D000F1F0401D86B20BE04FEA4A1021894843DE
:1019E000019901EB81014900B1FBF0F0401D86B285
:1019F0000A20B6FBF0F606F00108A6EB0800C0F3DB
:101A00004F074FF6FF7000EA0828022F01DBFF2F77
:101A100002DD02274FF0000847EA0800E18808438A
:101A20002884208840F4006061880843A188084326
:101A30006189084340EA0909A5F81C9006B0BDE891
:101A4000F0870021018041808180C1800181418136
:101A50008181C1810721018270470021018041807D
:101A60008180C1800221018100214181704721B123
:101A7000028842F04002028004E002884FF6BF7301
:101A80001A400280704721B1828B42F480628283C7
:101A900004E0828B4FF6FF331A408283704730B5E3
:101AA000002400230C110125A540ABB21AB1858892
:101AB0001D43858002E085889D43858030BD1AB135
:101AC00083880B43838002E083888B438380704745
:101AD000818170470146888970474FF6FF629142C5
:101AE00004D0028842F48072028004E002884FF63B
:101AF000FF631A400280704721B1828842F00402DD
:101B0000828004E082884FF6FB731A40828070471F
:101B100002884FF2FF731A40028002880A43028053
:101B20007047018841F480510180704721B10288DB
:101B300042F40052028004E002884DF6FF731A401E
:101B40000280704702460020012901D0108B00E07E
:101B5000908A70470146088A7047B1F5804F04D1DA
:101B6000028842F48042028004E002884BF6FF7350
:101B70001A40028070470246002013890B400BB1C7
:101B8000012000E000207047CA4302817047F0B591
:101B90000246002000240023002501F00F07012643
:101BA000BE40B4B20B1101269E40B3B2968806EA3D
:101BB00003051689264016B10DB1012000E0002072
:101BC000F0BD10B5002201F00F040123A3409AB22A
:101BD000D343038110BD000000C8FFBF40EA0103EA
:101BE00070B59B072ED14FF00136042A2AD308C8BE
:101BF00010C99D1B9D43121F15EAC61517D0D8B2F8
:101C0000E1B2401A50EA056110D198B2A1B2401A6F
:101C100050EA05410AD123F07F4024F07F41401A69
:101C200050EA052102D1180EA0EB146070BDA3424A
:101C3000DBD018BA21BA884201D9012070BD4FF01B
:101C4000FF3070BD0AB9002070BD10F8013B11F8DB
:101C5000014B63B1A3420AD1521E08D010F8013BD8
:101C600011F8014B1BB1A34201D1521EEDD1181B3B
:101C700070BD704770477047754600F029F8AE4652
:101C800005006946534620F00700854618B020B588
:101C9000FFF7AAFABDE820404FF000064FF000071A
:101CA0004FF000084FF0000B21F00701AC46ACE804
:101CB000C009ACE8C009ACE8C009ACE8C0098D4671
:101CC00070470446AFF300802046FEF778FA000024
:101CD000004870474406002001491820ABBEFEE7CB
:101CE00026000200704700003C666F6E7420636F30
:101CF0006C6F723D2223303030303939223E2A2A2F
:101D00002A2A2A2A2A2A2A2A2A2A2A2A2A2A4D49F1
:101D10004E492053544D33324631303352435436BA
:101D2000BFAAB7A2B0E55745422053455256455287
:101D3000CAB5D1E92A2A2A2A2A2A2A2A2A2A2A2A72
:101D40002A2A2A2A3C2F666F6E743E0A0000000081
:101D5000485454502F312E302034303120556E618C
:101D60007574686F72697A65640D0A436F6E746585
:101D70006E742D547970653A20746578742F687488
:101D80006D6C0D0A0D0A3C68313E34303120556EC1
:101D9000617574686F72697A65643C2F68313E00C2
:101DA0003C63656E7465723E3C703E3C666F6E745B
:101DB00020636F6C6F723D2223303030303939220E
:101DC0003ED5E2CAC7D2BBB8F62077656220B2E240
:101DD000CAD4B3CCD0F22C54455354204259204C91
:101DE00046542032303137303431353C2F666F6EF7
:101DF000743E0000141E0008000000206400000073
:101E00006C010008781E00086400002044080000EF
:101E100088010008545558100024C0A801106874A7
:101E200074703A2F2F3139322E3136382E312E310F
:101E3000362F000050000000B0040000313233346F
:101E400035360000000000000000000050000000D7
:101E50000000000000000000000000000000000082
:101E60000A0000000001020304010203040607083F
:081E700009020406080000004D
:0400000508000131BD
:00000001FF
